:100000000C9488000C94A5000C94A5000C94A500F9
:100010000C94A5000C94A5000C94A5000C94A500CC
:100020000C94A5000C94A5000C94A5000C948903D5
:100030000C94A5000C94A5000C94A5060C94A500A6
:100040000C94A5000C94A5000C94AB070C94FA0733
:100050000C94A5000C94A5000C94A5000C94A5008C
:100060000C94A5000C94A500FB0A000B000B000BE0
:10007000000B000B000B000B000B000B000B9E088D
:100080009E089E089E089E089E089E089E089E0840
:100090009E08000B000B000B000B000B000B000B6D
:1000A000000B000B000B000B000B000B000B000BF8
:1000B000000B000B000B000B000B000B000B000BE8
:1000C000000B000B000B000B000B000B000BA80932
:1000D000000B000B000B000B000B000B000B000BC8
:1000E000000B000BDA08EE08000B000B000B000BF6
:1000F000EE08000B000B000B000B000B000BA80917
:10010000000B000B2A09000B8B09000B000BA80940
:1001100011241FBECFEFD8E0DEBFCDBF12E0A0E0BC
:10012000B1E0E4EBF7E102C005900D92A831B10710
:10013000D9F726E0A8E1B2E001C01D92A73CB207C2
:10014000E1F70E94BD010C94D80B0C9400000F93B2
:100150001F93CF93FC0191E0C0E014C0803219F4EA
:10016000108291E00EC0992361F0C83090F5AC2F59
:10017000B0E0AA0FBB1FA85EBD4FED93FC93CF5F0D
:1001800090E0319680818111E9CFC11118C081E0E2
:1001900021C080911802909119020E94C70B892BEF
:1001A00059F4D8011296ED91FC91139768E172E031
:1001B0008C2F90E009950EC00A5F1F4F02C007E028
:1001C00011E0F801608171816115710511F781E01D
:1001D00001C082E0CF911F910F910895CF93DF93DB
:1001E0008CE291E00E94820782E491E00E94820703
:1001F000C7E0D1E00BC00E9482078C819D810E94E4
:10020000820784E591E00E94820726968881998181
:10021000009789F780E090E0DF91CF910895CF9328
:100220004CC080916B0290916C020E942407C82FF1
:100230000E946607CD3011F0CA3029F580912A025C
:100240008823E1F0E82FF0E0E55DFD4F10828F5F3D
:1002500080932A028BE292E00E94A70010922A0269
:10026000880F990BFC01E75EFE4F808191810E940F
:10027000820789E591E00E9482071FC087E591E02F
:100280000E9482071AC0C83011F0CF3741F4809124
:100290002A02882391F0815080932A020EC0809117
:1002A0002A02E82FF0E0E55DFD4FC0838F5F809369
:1002B0002A02813410F010922A0280916B029091F0
:1002C0006C020E940007882309F4ABCFCF910895F8
:1002D000CF92DF92EF92FF920F931F93CF93DF9312
:1002E00085309105FCF0069704F5EB018A819B812E
:1002F0000E94A90B8C018C819D810E94A90B7C011D
:100300008E819F810E94A90B6C01888599850E942E
:10031000A90B9C01A601B701C8010E941C0280E044
:1003200090E005C083E090E002C082E090E0DF91C1
:10033000CF911F910F91FF90EF90DF90CF90089594
:100340000E9441070E94A60790936C0280936B0263
:1003500080E4EBE2F2E0DF011D928A95E9F710926A
:100360002A0289E591E00E948207089561E071E028
:1003700080E091E00E94500508950E9430050E949F
:10038000A0010E94B6010E94CA060E94D0060E94E7
:100390003B060E943E06FDCF87B18C6087B9089569
:1003A000CF92DF92EF92FF920F931F936B017C012C
:1003B00080E090E0A0E0B0E440E050E0BA018A01C3
:1003C0009B01080F191F2A1F3B1FC016D106E2060A
:1003D000F30630F0C01AD10AE20AF30A21E001C0A4
:1003E00020E07695679557954795222321F0480F91
:1003F000591F6A1F7B1FB695A79597958795B69548
:10040000A795979587950097A105B105C1F64C155D
:100410005D056E057F0538F4CB01BA016F5F7F4F34
:100420008F4F9F4F02C0CB01BA011F910F91FF90D8
:10043000EF90DF90CF9008952F923F924F925F926E
:100440006F927F92AF92BF92CF92DF92EF92FF9224
:100450000F931F93CF93DF93CDB7DEB728970FB6D7
:10046000F894DEBF0FBECDBF98878F831B015A0162
:1004700069019F938F930CEF11E01F930F930E94DC
:10048000200B3F922F921F930F930E94200BBF923D
:10049000AF921F930F930E94200BDF92CF921F9376
:1004A0000F930E94200B0FB6F894DEBF0FBECDBF96
:1004B0008F81988599236CF4E6EAF5E08081886065
:1004C0008083AF81B885B195A195B109B887AF8315
:1004D00005C0E6EAF5E08081877F8083EF81F885BB
:1004E0003197F9F4E6EAF5E08FEF9FEF9287818785
:1004F0008081887F8260808388EE93E0928381830D
:1005000080916D02816080936D028AE090E090930B
:10051000890080938800E1E8F0E080818260808338
:10052000D5C02F813885232B09F4D0C0E12CF12CC4
:100530006BEE77EF87E190E0A70196010E94620BD6
:1005400029013A0106EA15E0D80118963C932E934A
:100550001797C101A0E0B0E089839A83AB83BC8385
:1005600060EA7FEA89EB92E129813A814B815C81E3
:100570000E94620BCA01B9010E94D0019B01AC012B
:10058000A8E6BAE10E94870B24E630E040E050E0A4
:100590000E94400B3E832D83D80112963C932E93EC
:1005A0001197A7019601C701B6010E94300B6B019C
:1005B0007C01AAE3B1E029813A814B815C810E94F0
:1005C000870B24E630E040E050E00E94620BC70158
:1005D000B6010E94620B8901232B11F401E010E0A7
:1005E0006501E12CF12CAF81B885A70196010E942D
:1005F000920B91012A0D3B1D40E050E00E94620BDE
:100600002115310511F421E030E00217130748F0FD
:10061000EF81F8852E1B3F0B3093AC052093AB0583
:1006200016C0D80129813A814B815C810E94870BD9
:1006300090958095709561957F4F8F4F9F4FA70143
:1006400096010E94620B3093AC052093AB0580911C
:10065000AB059091AC05892B31F48FEF9FEF909310
:10066000AC058093AB05E6EAF5E0858196812F81A4
:100670003885280F391F348323838D819E81481646
:10068000590638F0528241828081887F836080835E
:1006900006C0E6EAF5E08081887F81608083109261
:1006A000B0051092AF0580916D02816080936D025C
:1006B0008AE090E09093890080938800E1E8F0E080
:1006C0008081887F808380818260808328960FB6B6
:1006D000F894DEBF0FBECDBFDF91CF911F910F9178
:1006E000FF90EF90DF90CF90BF90AF907F906F9092
:1006F0005F904F903F902F900895E6EAF5E080815B
:10070000887F808388E08093810082E080936F00FF
:1007100008951F920F920FB60F9211244F925F927D
:100720006F927F928F929F92AF92BF92CF92DF9201
:10073000EF92FF920F931F932F933F934F935F93EB
:100740006F937F938F939F93AF93BF93CF93DF93D9
:10075000EF93FF93E6EAF5E021813281309389003F
:100760002093880028B1308133FB882780F990E0FE
:10077000880F991F880F991F880F991F822B88B99E
:1007800080818770813019F138F0823009F4E8C037
:10079000833009F4ABC03FC1109276021092770209
:1007A00010927802109279021092720210927302E3
:1007B0001092740210927502E1E8F0E08081887F67
:1007C000808380916D028E7F80936D0224C198B1E9
:1007D00084E0892788B98090760290907702A09073
:1007E0007802B09079020FEF801A900AA00AB00A3E
:1007F0008092760290927702A0927802B09279026B
:10080000C6EAD5E029853A852F5F3F4F3A87298789
:1008100049815A816A01E12CF12CB701A601440FEC
:10082000551F661F771F8091720290917302A091ED
:100830007402B09175022A013B01480E591E6A1ECE
:100840007B1EC301B201220F331F220F331F2F5F04
:100850003F4F032E000C440B550B0E94400B26010A
:100860003701421A530A640A750A60937202709340
:10087000730280937402909375028B819C81A0E037
:10088000B0E088169906AA06BB0648F08D819E81C5
:100890009A8789878881887F82608883BCC080919D
:1008A000AD059091AE05092E000CAA0BBB0B84156B
:1008B0009505A605B70508F4AEC040926E025092A9
:1008C0006F02609270027092710210927202109226
:1008D00073021092740210927502E6EAF5E020812C
:1008E000287F236020832C013D0195C098B184E0CE
:1008F000892788B98091760290917702A091780239
:10090000B09179020196A11DB11D8093760290935A
:100910007702A0937802B0937902E6EAF5E0478186
:1009200050852A01550F66087708C380D480E12CD2
:10093000F12C8C159D05AE05BF0508F46CC08581B2
:1009400096819287818740906E0250906F026090EE
:100950007002709071028081887F826080835BC0AA
:1009600098B184E0892788B98091760290917702C6
:10097000A0917802B09179020196A11DB11D8093DA
:10098000760290937702A0937802B0937902E6EA18
:10099000F5E0C185D2852196D287C18741815281F8
:1009A0006A01E12CF12CB701A601440F551F661F07
:1009B000771F8091720290917302A0917402B0919E
:1009C00075028A019B01080F191F2A1F3B1FC901CD
:1009D000B8019E01220F331F220F331F2F5F3F4F9D
:1009E000032E000C440B550B0E94400B26013701CF
:1009F000421A530A640A750A609372027093730272
:100A00008093740290937502DD232CF0E6EAF5E002
:100A10008081887F80835092A8054092A705FF912E
:100A2000EF91DF91CF91BF91AF919F918F917F9186
:100A30006F915F914F913F912F911F910F91FF9077
:100A4000EF90DF90CF90BF90AF909F908F907F906E
:100A50006F905F904F900F900FBE0F901F90189562
:100A60001092B2051092B1051092990210927A027A
:100A70008CE3EAE9F2E0DF011D928A95E9F78EE165
:100A8000EBE7F2E0DF011D928A95E9F788E0E3EBFE
:100A9000F5E0DF011D928A95E9F70E94E0060895CE
:100AA000CF93DF93EC01892B39F16115710531F199
:100AB00090919902993020F5292F30E0F901EE0F3D
:100AC000FF1FDF01A20FB31FAA0FBB1FA656BD4F0A
:100AD00015967C936E93149711961C92119713960A
:100AE0001C921E921297FD0181E0808398839F5F84
:100AF0009093990280E005C081E003C081E001C0CD
:100B000081E0DF91CF9108958091B1059091B20578
:100B100001969093B2058093B10580E043C0282FE1
:100B200030E0F901EE0FFF1FE20FF31FEE0FFF1F82
:100B3000E656FD4FA481B5819C91913091F5F90164
:100B4000EE0FFF1FE20FF31FEE0FFF1FE656FD4FE4
:100B50009081913031F5F901EE0FFF1FE20FF31F85
:100B6000EE0FFF1FE656FD4F428153814F5F5F4FEF
:100B70005383428312966D917C91139746175707C2
:100B800080F0F901EE0FFF1FDF01A20FB31FAA0FC4
:100B9000BB1FA656BD4F13961C921E921297FD01C5
:100BA00091838F5F90919902891708F4B8CF20E064
:100BB00041C0822F90E0FC01EE0FFF1FE80FF91FEC
:100BC000EE0FFF1FE558FD4F3081313091F5FC01EC
:100BD000EE0FFF1FE80FF91FEE0FFF1FE558FD4F47
:100BE000428153814F5F5F4F53834283A481B5811C
:100BF00011966D917C91129746175707D0F0FC0122
:100C0000EE0FFF1FE80FF91FEE0FFF1FE558FD4F16
:100C10003183138212824C91423009F030E0FC01A2
:100C2000EE0FFF1FE80FF91FEE0FFF1FE558FD4FF6
:100C300030832F5F80917A02281708F4BACF80E0C2
:100C400017C0282F30E0F901EE0FFF1FED54FA4FC7
:100C500040815181452B59F0220F331FF901ED548A
:100C6000FA4F2081318121503109318320838F5FF8
:100C7000823038F308950E94D7060895CF93C0E0DC
:100C800032C08C2F90E0FC01EE0FFF1FE80FF91F20
:100C9000EE0FFF1FE656FD4F2181213019F5FC01B3
:100CA000EE0FFF1FE80FF91FEE0FFF1FE656FD4F77
:100CB00020812130B9F4FC01EE0FFF1FDF01A80FE6
:100CC000B91FAA0FBB1FA656BD4F11961C921197B4
:100CD000FD010480F581E02D0480F581E02D309741
:100CE00009F00995CF5F80919902C81750F2C0E0D2
:100CF00026C08C2F90E0FC01EE0FFF1FE80FF91FBC
:100D0000EE0FFF1FE558FD4F21812130B9F4FC01A2
:100D1000EE0FFF1FDF01A80FB91FAA0FBB1FA558B9
:100D2000BD4F11961C921197FD010480F581E02DB5
:100D30000380F481E02D309709F00995CF5F809111
:100D40007A02C817B0F2CF9108951F920F920FB692
:100D50000F9211242F933F934F935F936F937F9341
:100D60008F939F93AF93BF93EF93FF930E9484055C
:100D7000FF91EF91BF91AF919F918F917F916F9173
:100D80005F914F913F912F910F900FBE0F901F9049
:100D9000189508950E94CC010E947D0378940895CF
:100DA00064E271E083E291E00E945005089583E0DF
:100DB00085BDEEE6F0E080818260808378940895BE
:100DC00082E084BD16BC8CE787BD08953FB7F894D8
:100DD00021E009C0FC01E05CFF4F108231961082D7
:100DE0003196108220E02111F5CF3FBF08958E5B30
:100DF0009F4FFC01908181E0903409F080E00895DC
:100E00008E5B9F4FFC01908181E0911180E00895FD
:100E1000FB01E05CFF4F9081FB01E90FF11D808336
:100E20009FB7F89481E00CC0FB01E05CFF4F80812C
:100E30008F5F8F738083329680818F5F808380E0A5
:100E40008111F2CF9FBF08959C01FC01EF5BFF4F22
:100E50008081F901E80FF11D80814FB7F89491E08E
:100E60000CC0F901EF5BFF4F90819F5F9F739083F0
:100E7000319690819150908390E09111F2CF4FBFC5
:100E800008958AB18D7F8AB98BB182608BB98091C8
:100E90002A0190912B018D5B9F4F0E94E606809165
:100EA0002A0190912B010E94E6061092C50083E36F
:100EB0008093C400E1ECF0E0808188698083E2ECFB
:100EC000F0E080818660808378940895CF93C82F66
:100ED00080912A0190912B018D5B9F4F0E94F70614
:100EE0008111F6CF60912A0170912B016D5B7F4FCC
:100EF0008C2F0E940807E1ECF0E080818062808303
:100F0000CF910895CF93DF93EC0103C021960E9407
:100F1000660788818111FACFDF91CF9108950F93F1
:100F20001F93CF93DF93FC01D62FC0E008C08F0141
:100F30000F5F1F4F80810E946607CF5FF801CD17BA
:100F4000B0F3DF91CF911F910F91089580912A0105
:100F500090912B0108951F920F920FB60F921124BA
:100F60002F933F934F935F936F937F938F939F93B1
:100F7000AF93BF93CF93EF93FF93C091C60080913F
:100F80002A0190912B010E94F706811114C06091F3
:100F90002A0170912B018C2F0E940807E0912A01F1
:100FA000F0912B018091C0008C7190E0EA57FF4FC7
:100FB000918380830DC0E0912A01F0912B018091F3
:100FC000C0008C71816090E0EA57FF4F918380836D
:100FD000FF91EF91CF91BF91AF919F918F917F91B1
:100FE0006F915F914F913F912F910F900FBE0F9096
:100FF0001F9018951F920F920FB60F9211242F93E6
:101000003F934F935F936F937F938F939F93AF9390
:10101000BF93EF93FF9380912A0190912B018D5BF9
:101020009F4F0E94000781110BC080912A0190916F
:101030002B018D5B9F4F0E9424078093C60005C043
:10104000E1ECF0E080818F7D8083FF91EF91BF9193
:10105000AF919F918F917F916F915F914F913F9150
:101060002F910F900FBE0F901F9018954F925F9287
:101070006F927F928F929F92AF92BF92EF92FF9268
:101080000F931F93CF93DF93CDB7DEB7A8970FB61B
:10109000F894DEBF0FBECDBF8C017B01B8C21982B0
:1010A0001A821B821C820BC089819A81AB81BC8110
:1010B0000196A11DB11D89839A83AB83BC8389816D
:1010C0009A81AB81BC81F801E80FF91F80818532DC
:1010D00051F089819A81AB81BC81F801E80FF91F39
:1010E00080818111E1CF69817A818B819C81C801E6
:1010F0000E948F0789819A81AB81BC81080F191FDB
:10110000F8018081853209F082C2D80111961D86CE
:101110001E861F86188A6894BB24B5F88D010F5F60
:101120001F4F8C91482F50E0FA01B597E435F10537
:1011300008F066C2EC5CFF4F0C94810B803361F4C5
:101140004D855E856F857889452B462B472B21F48D
:101150000F2EF0E3BF2EF02D4D855E856F857889CB
:10116000440F551F661F771F2A013B01440C551C75
:10117000661C771C440C551C661C771C440D551DC1
:10118000661D771D4D875E876F87788B90E0C097CF
:101190004D855E856F857889092E000CAA0BBB0BE7
:1011A000840F951FA61FB71F8D879E87AF87B88BAB
:1011B000D801B4CF5701F4E0AF0EB11CF701808124
:1011C0009181A281B3818D839E83AF83B88761E0D3
:1011D000CE0105960E948F07750119C297012E5FF7
:1011E0003F4FF70180819181A0E0B0E08D839E8325
:1011F000AF83B88719861A861B861C868D819E81CF
:10120000AF81B885BB23C4F48D819E81AF81B88541
:10121000B095A095909581959F4FAF4FBF4F8D830F
:101220009E83AF83B88781E090E0A0E0B0E08D8B33
:101230009E8BAF8BB88F04C01D8A1E8A1F8A188EA2
:101240008AE090E0A0E0B0E0898B9A8BAB8BBC8BFE
:1012500079019AC05701F2E0AF0EB11CF70180810D
:10126000918119821A821B821C820CC049815A8189
:101270006B817C814F5F5F4F6F4F7F4F49835A83F4
:101280006B837C8349815A816B817C81FC01E40FF3
:10129000F51F20812111EACF49815A816B817C8120
:1012A000642F0E948F074D855E856F8578898981BF
:1012B0009A81AB81BC8184179507A607B70708F010
:1012C000A5C149815A816B817C818D859E85AF85C1
:1012D000B889841B950BA60BB70B8D879E87AF87AC
:1012E000B88B05C061E08AE591E00E948F078D858B
:1012F0009E85AF85B889AC01BD0141505109610996
:1013000071094D875E876F87788B892B8A2B8B2B92
:1013100049F775017CC1F70180819181A0E0B0E0BF
:101320008D839E83AF83B88719861A861B861C8699
:101330008AE090E0A0E0B0E0898B9A8BAB8BBC8B0D
:101340001D8A1E8A1F8A188EC70102967C011CC046
:10135000F70180819181A0E0B0E08D839E83AF830F
:10136000B88719861A861B861C8680E190E0A0E06B
:10137000B0E0898B9A8BAB8BBC8B1D8A1E8A1F8A2F
:10138000188EC70102967C0181E090E0A0E0B0E0F9
:1013900089839A83AB83BC8319C029893A894B8995
:1013A0005C8969817A818B819C810E94300B698381
:1013B0007A838B839C838D859E85AF85B8890197C1
:1013C000A109B1098D879E87AF87B88B29813A81A2
:1013D0004B815C8169897A898B899C890E94300B59
:1013E0004D805E806F8078844616570668067906C1
:1013F000D0F029813A814B815C8169897A898B8916
:101400009C890E94300B29893A894B895C890E940A
:10141000400B89819A81AB81BC81281739074A0723
:101420005B0709F4BACF8D899E89AF89B88D892B66
:101430008A2B8B2B59F08D859E85AF85B8890197B6
:10144000A109B1098D879E87AF87B88B8D899E8949
:10145000AF89B88D892B8A2B8B2BE9F090E3B912D9
:101460001AC089859A85AB85BC85AC01BD014F5FEB
:101470005F4F6F4F7F4F49875A876B877C87E9E1C2
:10148000F0E0EC0FFD1FE80FF91F2DE220831D8A0D
:101490001E8A1F8A188E8D859E85AF85B889029712
:1014A000A105B105E0F18D859E85AF85B88940978E
:1014B000A105B105A0F58D859E85AF85B8890197F9
:1014C000A109B1098D879E87AF87B88B20C0898518
:1014D0009A85AB85BC85AC01BD014F5F5F4F6F4FF7
:1014E0007F4F49875A876B877C87E9E1F0E0EC0FF3
:1014F000FD1FE80FF91FB0828D859E85AF85B889E5
:101500000197A109B1098D879E87AF87B88B8D851B
:101510009E85AF85B889892B8A2B8B2BC1F68D8947
:101520009E89AF89B88D892B8A2B8B2B09F451C0EA
:1015300089859A85AB85BC85AC01BD014F5F5F4F46
:101540006F4F7F4F49875A876B877C87E9E1F0E0CF
:10155000EC0FFD1FE80FF91F2DE220833AC08984AC
:101560009A84AB84BC84D501C4010196A11DB11D30
:1015700089879A87AB87BC876D817E818F819885AB
:1015800029813A814B815C810E94400B49885A88AD
:101590006B887C88CA01B901A30192010E94400BAB
:1015A000FB01EF5FFD4F8081E9E1F0E0EC0FFD1FF3
:1015B000E80DF91D808329893A894B895C89698105
:1015C0007A818B819C810E94400B29833A834B83D3
:1015D0005C8389819A81AB81BC81892B8A2B8B2B7F
:1015E00009F0BDCF69857A858B859C85CE014996AA
:1015F0000E948F070CC061E0CD010E948F0707C0D9
:1016000065E082E192E00E948F0701C07501F80158
:101610008081811144CDA8960FB6F894DEBF0FBE2D
:10162000CDBFDF91CF911F910F91FF90EF90BF90B1
:10163000AF909F908F907F906F905F904F900895A4
:10164000CF93DF93CDB7DEB7BE016B5F7F4FFB015A
:1016500081919191BF010E943608DF91CF91089549
:10166000DB018F939F930E94870BBF91AF91A29F45
:10167000800D911DA39F900DB29F900D1124089590
:10168000A1E21A2EAA1BBB1BFD010DC0AA1FBB1F86
:10169000EE1FFF1FA217B307E407F50720F0A21BF8
:1016A000B30BE40BF50B661F771F881F991F1A9465
:1016B00069F760957095809590959B01AC01BD018F
:1016C000CF010895052E97FB1EF400940E94790B1C
:1016D00057FD07D00E94400B07FC03D04EF40C943A
:1016E000790B50954095309521953F4F4F4F5F4F67
:1016F000089590958095709561957F4F8F4F9F4F7E
:101700000895EE0FFF1F0590F491E02D09940E94BB
:101710009A0BA59F900DB49F900DA49F800D911DD5
:1017200011240895B7FF0C94870B0E94870B821B2E
:10173000930B0895A29FB001B39FC001A39F700DAA
:10174000811D1124911DB29F700D811D1124911DC9
:101750000895FC0188279927E89421912032E9F324
:10176000293010F02E30C8F32B3241F02D3239F4ED
:10177000689404C00E94D00B820F911D21912053C8
:101780002A30C0F31EF4909581959F4F0895FB0178
:10179000DC018D91019080190110D9F3990B089506
:1017A0007AE0979F902D879F802D910D11240895A9
:0417B000F894FFCFDB
:1017B400FF01000A000F016701EE005C016C016883
:1017C400017101000000000000A001A501B701CFD4
:1017D40001E601FF01003200C9063F060A417661B5
:1017E400696C61626C6520636F6D6D616E64730D0D
:1017F4000A002D2D2D2D2D2D2D2D2D2D2D2D2D2D65
:101804002D2D2D2D0D0A000D0A3E2000207C206672
:101814006F726D61743A2068656C70006D6F746FDF
:1018240000207C20666F726D61743A206D6F746F56
:10183400203C737465703E203C616363656C3E209C
:101844003C646563656C3E203C73706565643E0072
:101854004F4B0D0A00434D444C494E455F424144B1
:101864005F434D440D0A00434D444C494E455F547B
:101874004F4F5F4D414E595F415247530D0A00434C
:101884004D444C494E455F544F4F5F4645575F4169
:101894005247530D0A00434D444C494E455F494E4F
:1018A40056414C49445F4152470D0A0025640D0AD4
:1018B4000030313233343536373839616263646528
:0818C40066004552524F52002C
:00000001FF
